{
  "contractName": "CoinFlip",
  "abi": [
    {
      "constant": true,
      "inputs": [],
      "name": "player2Choice",
      "outputs": [
        {
          "name": "",
          "type": "bool"
        }
      ],
      "payable": false,
      "stateMutability": "view",
      "type": "function"
    },
    {
      "constant": true,
      "inputs": [],
      "name": "expiration",
      "outputs": [
        {
          "name": "",
          "type": "uint256"
        }
      ],
      "payable": false,
      "stateMutability": "view",
      "type": "function"
    },
    {
      "constant": true,
      "inputs": [],
      "name": "player2",
      "outputs": [
        {
          "name": "",
          "type": "address"
        }
      ],
      "payable": false,
      "stateMutability": "view",
      "type": "function"
    },
    {
      "constant": true,
      "inputs": [],
      "name": "player1Password",
      "outputs": [
        {
          "name": "",
          "type": "uint256"
        }
      ],
      "payable": false,
      "stateMutability": "view",
      "type": "function"
    },
    {
      "constant": true,
      "inputs": [],
      "name": "betAmount",
      "outputs": [
        {
          "name": "",
          "type": "uint256"
        }
      ],
      "payable": false,
      "stateMutability": "view",
      "type": "function"
    },
    {
      "constant": true,
      "inputs": [],
      "name": "player1",
      "outputs": [
        {
          "name": "",
          "type": "address"
        }
      ],
      "payable": false,
      "stateMutability": "view",
      "type": "function"
    },
    {
      "inputs": [
        {
          "name": "Password",
          "type": "uint256"
        }
      ],
      "payable": true,
      "stateMutability": "payable",
      "type": "constructor"
    },
    {
      "constant": false,
      "inputs": [],
      "name": "cancel",
      "outputs": [],
      "payable": false,
      "stateMutability": "nonpayable",
      "type": "function"
    },
    {
      "constant": false,
      "inputs": [
        {
          "name": "choice",
          "type": "bool"
        }
      ],
      "name": "takeBet",
      "outputs": [],
      "payable": true,
      "stateMutability": "payable",
      "type": "function"
    },
    {
      "constant": false,
      "inputs": [
        {
          "name": "choice",
          "type": "bool"
        },
        {
          "name": "Password",
          "type": "uint256"
        }
      ],
      "name": "reveal",
      "outputs": [],
      "payable": false,
      "stateMutability": "nonpayable",
      "type": "function"
    },
    {
      "constant": false,
      "inputs": [],
      "name": "claimTimeout",
      "outputs": [],
      "payable": false,
      "stateMutability": "nonpayable",
      "type": "function"
    }
  ],
  "bytecode": "0x60606040527fffffffffffffffffffffffffffffffffffffffffffffffffffffffffffffffff60045560405160208061077983398101604052808051906020019091905050336000806101000a81548173ffffffffffffffffffffffffffffffffffffffff021916908373ffffffffffffffffffffffffffffffffffffffff1602179055508060018190555034600281905550506106d7806100a26000396000f3006060604052600436106100a4576000357c0100000000000000000000000000000000000000000000000000000000900463ffffffff1680630ce6e680146100a95780630e1da6c3146100d657806338a3fde7146100eb57806339f3027d146101055780634665096d1461013357806359a5f12d1461015c578063cbcd720e146101b1578063d24257c0146101da578063d30895e414610203578063ea8a1af014610258575b600080fd5b34156100b457600080fd5b6100bc61026d565b604051808215151515815260200191505060405180910390f35b34156100e157600080fd5b6100e9610280565b005b6101036004808035151590602001909190505061030c565b005b341561011057600080fd5b610131600480803515159060200190919080359060200190919050506103cd565b005b341561013e57600080fd5b61014661054b565b6040518082815260200191505060405180910390f35b341561016757600080fd5b61016f610551565b604051808273ffffffffffffffffffffffffffffffffffffffff1673ffffffffffffffffffffffffffffffffffffffff16815260200191505060405180910390f35b34156101bc57600080fd5b6101c4610577565b6040518082815260200191505060405180910390f35b34156101e557600080fd5b6101ed61057d565b6040518082815260200191505060405180910390f35b341561020e57600080fd5b610216610583565b604051808273ffffffffffffffffffffffffffffffffffffffff1673ffffffffffffffffffffffffffffffffffffffff16815260200191505060405180910390f35b341561026357600080fd5b61026b6105a8565b005b600360149054906101000a900460ff1681565b600454421015151561029157600080fd5b600360009054906101000a900473ffffffffffffffffffffffffffffffffffffffff1673ffffffffffffffffffffffffffffffffffffffff166108fc3073ffffffffffffffffffffffffffffffffffffffff16319081150290604051600060405180830381858888f19350505050151561030a57600080fd5b565b6000600360009054906101000a900473ffffffffffffffffffffffffffffffffffffffff1673ffffffffffffffffffffffffffffffffffffffff1614151561035357600080fd5b6002543414151561036357600080fd5b33600360006101000a81548173ffffffffffffffffffffffffffffffffffffffff021916908373ffffffffffffffffffffffffffffffffffffffff16021790555080600360146101000a81548160ff02191690831515021790555062015180420160048190555050565b6000600360009054906101000a900473ffffffffffffffffffffffffffffffffffffffff1673ffffffffffffffffffffffffffffffffffffffff161415151561041557600080fd5b6004544210151561042557600080fd5b6001548114151561043557600080fd5b811515600360149054906101000a900460ff16151514156104ce57600360009054906101000a900473ffffffffffffffffffffffffffffffffffffffff1673ffffffffffffffffffffffffffffffffffffffff166108fc3073ffffffffffffffffffffffffffffffffffffffff16319081150290604051600060405180830381858888f1935050505015156104c957600080fd5b610547565b6000809054906101000a900473ffffffffffffffffffffffffffffffffffffffff1673ffffffffffffffffffffffffffffffffffffffff166108fc3073ffffffffffffffffffffffffffffffffffffffff16319081150290604051600060405180830381858888f19350505050151561054657600080fd5b5b5050565b60045481565b600360009054906101000a900473ffffffffffffffffffffffffffffffffffffffff1681565b60015481565b60025481565b6000809054906101000a900473ffffffffffffffffffffffffffffffffffffffff1681565b6000809054906101000a900473ffffffffffffffffffffffffffffffffffffffff1673ffffffffffffffffffffffffffffffffffffffff163373ffffffffffffffffffffffffffffffffffffffff1614151561060357600080fd5b6000600360009054906101000a900473ffffffffffffffffffffffffffffffffffffffff1673ffffffffffffffffffffffffffffffffffffffff1614151561064a57600080fd5b60006002819055503373ffffffffffffffffffffffffffffffffffffffff166108fc3073ffffffffffffffffffffffffffffffffffffffff16319081150290604051600060405180830381858888f1935050505015156106a957600080fd5b5600a165627a7a7230582075fcfe45d8b0ff60ad7316abd9498d2e2687a59811ec6a222f57c677cf34132b0029",
  "source": "pragma solidity ^0.4.21;\n\ncontract CoinFlip {\n    address public player1;\n    uint256 public player1Password;\n\n    uint256 public betAmount;\n\n    address public player2;\n    bool public player2Choice;\n\n    uint256 public expiration = 2**256-1;\n\n    function CoinFlip(uint256 Password) public payable {\n        player1 = msg.sender;\n        player1Password = Password;\n        betAmount = msg.value;\n    }\n\n    function cancel() public {\n        require(msg.sender == player1);\n        require(player2 == 0);\n\n        betAmount = 0;\n        msg.sender.transfer(address(this).balance);\n    }\n\n    function takeBet(bool choice) public payable {\n        require(player2 == 0);\n        require(msg.value == betAmount);\n\n        player2 = msg.sender;\n        player2Choice = choice;\n\n        expiration = now + 24 hours;\n    }\n\n    function reveal(bool choice, uint256 Password) public {\n        require(player2 != 0);\n        require(now < expiration);\n\n        require(Password == player1Password);\n\n        if (player2Choice == choice) {\n            player2.transfer(address(this).balance);\n        } else {\n            player1.transfer(address(this).balance);\n        }\n    }\n\n    function claimTimeout() public {\n        require(now >= expiration);\n\n        player2.transfer(address(this).balance);\n    }\n}",
  "sourcePath": "/home/typokills/Documents/Github/Coinflipper/contracts/CoinFlip.sol",
  "compiler": {
    "name": "solc",
    "version": "0.4.21+commit.dfe3193c.Emscripten.clang"
  },
  "schemaVersion": "3.0.23",
  "updatedAt": "2020-04-17T19:33:21.085Z",
  "networkType": "ethereum",
  "devdoc": {
    "methods": {}
  },
  "userdoc": {
    "methods": {}
  }
}